:020000040800F2
:10000000183B0020691A00081506000817060008AA
:100010001B0600081F060008230600080000000059
:10002000000000000000000000000000270600089B
:10003000290600080000000093DD00087D0D00087F
:10004000831A0008831A0008831A0008831A00081C
:10005000831A0008831A0008831A0008831A00080C
:10006000831A0008831A0008831A0008831A0008FC
:10007000831A0008831A0008831A0008831A0008EC
:10008000831A0008831A0008831A0008831A0008DC
:100090001D110008831A0008831A0008831A00083B
:1000A000831A0008831A0008831A0008831A0008BC
:1000B000831A0008831A0008831A0008831A0008AC
:1000C000831A0008831A0008831A0008831A00089C
:1000D000831A0008750F0008831A0008831A0008A5
:1000E000831A0008831A0008831A0008831A00087C
:1000F000831A0008831A0008831A0008831A00086C
:10010000831A0008831A0008831A0008831A00085B
:10011000831A0008831A0008831A0008831A00084B
:10012000831A0008831A0008831A0008831A00083B
:10013000831A0008831A0008831A0008831A00082B
:10014000831A0008831A0008831A0008831A00081B
:10015000831A0008831A0008831A0008831A00080B
:10016000831A0008831A0008831A0008831A0008FB
:10017000831A0008831A0008831A0008831A0008EB
:10018000831A0008831A000800F002F800F03EF815
:100190000AA090E8000C82448344AAF10107DA45E2
:1001A00001D100F033F8AFF2090EBAE80F0013F0F6
:1001B000010F18BFFB1A43F0010318474CEA000077
:1001C0006CEA0000103A24BF78C878C1FAD8520708
:1001D00024BF30C830C144BF04680C6070470000C1
:1001E0000023002400250026103A28BF78C1FBD840
:1001F000520728BF30C148BF0B60704700207047CE
:100200001FB50EF022FB1FBD10B510BD0DF074FD23
:100210001146FFF7F5FF00F0F2F80DF092FD03B480
:10022000FFF7F2FF03BC00F03BFE000030B58BB0DF
:100230000446002500BF04F0E9F80AA80AF053F8C4
:100240000AAA0121084606F0DCF80AA803210022C8
:100250000592CDE906210890104680210C229C4B86
:10026000CDE90132CDE9031007200023994A9AA174
:1002700000909C480AF00EFC9BA00DF053FC0AA8CD
:10028000032100220592CDE9062108901046802125
:100290000C229A4BCDE90132CDE903100420002352
:1002A000974A98A100909A480AF0F4FB99A00DF0A3
:1002B00039FC0AA8032100220592CDE90621089005
:1002C000104680210C22984BCDE90132CDE9031074
:1002D00005200023954A96A1009098480AF0DAFB81
:1002E00097A00DF01FFC0AA8032100220592CDE97A
:1002F00006210890012080210C22974BCDE9013284
:10030000CDE9031006200023944A95A10090984857
:100310000AF0C0FB97A00DF005FC0AA803210022FB
:100320000592CDE90621089010464FF480711922FC
:10033000964BCDE90132CDE903100A200023944AFF
:1003400094A1009096480AF0A5FB96A00DF0EAFB58
:100350000AAB00229AA19E4806F0BDFD00BF00BF77
:1003600000BF04F08BF9054600BF00BF9948007834
:10037000401C9849087000BF00BF284604F082F96D
:1003800000BF00BF00BF0AAB002293A1944809F050
:100390001EFB00BF00BF00BF04F070F9054600BFA0
:1003A00000BF8C480078401E8A49087008460078D3
:1003B000A0B98C480088002809DD00BF00BF28468E
:1003C00004F060F900BF00BF06F004FC0DE000BFC0
:1003D00000BF284604F056F900BF06E000BF00BF8A
:1003E000284604F04FF900BF00BF00BF7EA00DF00B
:1003F00099FB0AA900200AF0A1FC0BB030BD10B592
:100400008AB0002400F0FEFA09A805F0D1FD00BF73
:1004100000BF00BF04F032F9044600BF00BF6D48C2
:100420000078401C6B49087000BF00BF204604F0F4
:1004300029F900BF00BF00BF09A8032100220592CF
:10044000CDE906210890104680210C226C4BCDE9A5
:100450000132CDE9031003200023AFF22F2269A15E
:1004600000906B480AF016FB00BF00BF00BF04F00D
:1004700005F9044600BF00BF56480078401E5549A4
:10048000087008460078A0B956480088002809DDA1
:1004900000BF00BF204604F0F5F800BF00BF06F023
:1004A00099FB0DE000BF00BF204604F0EBF800BF51
:1004B00006E000BF00BF204604F0E4F800BF00BF24
:1004C00000BF09A806F03DF800200AB010BD0000EA
:1004D000A40400205B0A00084D61696E20746173FA
:1004E0006B000000E0030020312E20B4B4BDA84D05
:1004F00041494EC8CECEF10D0A0000006807002029
:10050000310B000873706F7274207461736B00009C
:10051000A4060020322E20B4B4BDA853504F52542C
:10052000C8CECEF10D0A00002C0A0020A70A000850
:1005300063616E207461736B000000006809002025
:10054000332E20B4B4BDA843414ECDA8D0C5C8CEEB
:10055000CEF10D0A00000000F00C0020C10A0008D6
:10056000726573706F6E64207461736B00000000BD
:100570002C0C0020342E20B4B4BDA8C9CFCEBBBBF8
:10058000FACDA8D0C5C8CECEF10D0A00B40F002018
:100590003F190008756E646D207461736B00000074
:1005A000F00E0020352E20B4B4BDA8B3ACC9F9B20A
:1005B000A8B4ABB8D0C6F7C8CECEF10D0A00000083
:1005C000756E646D5F666C61675F677270000000D6
:1005D000B4130020B800002043414E5F53454D0046
:1005E000DC1300207C000020C9BEB3FDB3F5CABCFB
:1005F000BBAFB4A6C0EDBAAFCAFD0D0A0000000043
:10060000E00100207374617274207461736B0000E8
:100610001C010020704700BFFEE700BFFEE700BFDF
:10062000FEE700BFFEE77047704700000CB50020F2
:10063000019000907648006840F48030744908606A
:1006400000BF7348006800F4003000900198401C1F
:100650000190009818B90198B0F5A04FF1D16C48FD
:10066000006800F4003010B10120009001E000208B
:1006700000900098012846D165484030006840F05D
:1006800080506349403108606248006840F440404F
:10069000604908605E48083000685D4908310860BC
:1006A0000846006840F4004008600846006840F4CE
:1006B000A05008605848091F0860081F006840F0F3
:1006C0008070091F086000BF5148006800F000708A
:1006D0000028F9D040F20570504908604C480830B5
:1006E000006820F003004A490831086008460068A5
:1006F00040F00200086000BF45480830006800F084
:100700000C000828F8D10CBD10B54548006840F42D
:100710007000434908603E48006840F001003C49D1
:10072000086000203A4908310860394800683D49AE
:100730000840374908603C48091D0860081F0068E8
:1007400020F48020091F0860002031490C31086026
:10075000FFF76CFF4FF0006031498039086010BD31
:1007600070B500200022022300240221284D083504
:100770002D6805F00C0020B1042806D0082834D1DB
:1007800007E02A4D2A4E356033E02A4D284E356069
:100790002FE01F4D2D1D2D68C5F380541C4D2D1DC0
:1007A0002D6805F03F0154B1224DB5FBF1F5184E0F
:1007B000361D3668C6F3881605FB06F209E01B4DA8
:1007C000B5FBF1F5124E361D3668C6F3881605FBEB
:1007D00006F20F4D2D1D2D68C5F301456D1C6B00F4
:1007E000B2FBF3F5124E356003E0104D104E35604C
:1007F00000BF00BF064D08352D68C5F303150E4E2A
:10080000705D0B4D2D68C540094E356070BD000010
:10081000003802400070004008544007003C02408D
:1008200088ED00E0FFFFF6FE103000240024F40005
:100830000000002000127A000400002070B52DEDA9
:100840000C8BB0EE408AF0EE608AB0EE419AF0EE8A
:10085000619A9FED5E0B53EC102B51EC190B0DF0D0
:100860008FFD41EC1D0B9FED5B0B53EC102B0DF03E
:10087000B1FB41EC1C0B53EC182B0DF07FFE41EC4F
:100880001B0B9FED560B53EC102B0DF079FD41EC3B
:100890001A0B0DF033FD04469FED4C0B53EC102B5F
:1008A00051EC190B0DF06CFD41EC1D0B9FED490B4C
:1008B00053EC102B0DF08EFB41EC1C0B53EC182B62
:1008C0000DF0D4FA41EC1B0B9FED460B53EC102BB3
:1008D0000DF056FD41EC1A0B0DF010FD05460322FC
:1008E00046F26001012000F07CFE032246F2600126
:1008F000022000F076FE9FED3D0B53EC102B51ECE7
:10090000180B0DF0BFFC08D19FED380B53EC102BEA
:1009100051EC190B0DF0B6FC1BD03649087E22466F
:1009200046F2FF0100F05DFE324991F840002A4690
:1009300046F2FF0100F055FE0F2246F24001012071
:1009400000F04FFE0F2246F24001022000F049FE67
:100950000DE040F20F1246F24001012000F041FE8E
:1009600040F20F1246F24001022000F03AFEBDECC8
:100970000C8B70BD10B52DED048B002000F048FDF0
:100980000446012C08D11C4890ED000ADFED1B0A3B
:1009900030EE200A80ED000AACB1194800680DF075
:1009A000E3FE41EC180B144800680DF0DDFE41EC4D
:1009B000190BB0EE481AF0EE681AB0EE490AF0EEE4
:1009C000690AFFF73BFFBDEC048B10BD9A9999991A
:1009D0009999D93F0000000000000040558893FD20
:1009E000519BCE40558893FD519BCEC00000000026
:1009F0000000000004140020140000200AD7A33CCB
:100A00001800002008B5012051490876022081F81D
:100A100040004FF4A06001F047F8A82000F0BAF9B8
:100A20004FF4E13000F049FA00F0ECFA00F0B2FCCB
:100A300000F0D0FC0020032306220521009000F0E6
:100A4000BAFB012000F082FE4FF4FA71052000F09D
:100A50008AFC40A00DF066F808BD0EB522E04248C1
:100A600000780A2805DA40480078401C3E490870A2
:100A70000EE000203C4908703C480068C0433C49F7
:100A8000C1F8A4020846D0F8A802C043C1F8A802E1
:100A900002A8082114230022CDE9001011461046B7
:100AA0000BF093FFDBE70EB509E002A80821142341
:100AB0000022CDE90010114610460BF086FFF4E746
:100AC00086B034E002A8002301AA194600900A204B
:100AD0000AF073FA0446BDF8040080B12078FF28BC
:100AE00004D11B49204600F09EF81EE02078FC2827
:100AF0001BD1A078164A03A900F03EF815E01D4866
:100B0000007828B1124A03A9122000F0F1F804E09D
:100B10000F4A03A9132000F0EBF81648007808B933
:100B2000012000E000201349087005F046FBC9E7EA
:100B30000EB50BE0FFF71EFF02A8082114230022C8
:100B4000CDE90010114610460BF03FFFF2E7000020
:100B500004140020D3B2BCFEB3F5CABCBBAFCDEACF
:100B6000B3C90D0A000000001C000020A48242420C
:100B7000008042421D00002070B506460C46154616
:100B8000FE202070A670701F052845D2DFE800F017
:100B900003172C333B006078012806D1686AC4F83B
:100BA0000300686BC4F8070008E06078022805D1EC
:100BB000E86CC4F80300E86DC4F807002DE0607825
:100BC000012805D1A88DA4F80300288EA4F80500FB
:100BD0006078022807D1B5F85400A4F80300B5F8EE
:100BE0005800A4F8050018E0A86EC4F80300E86EE9
:100BF000C4F8070011E0286FC4F80300B5F87400CA
:100C0000A4F8070009E0D5F87600C4F80300D5F889
:100C10007A00C4F8070000E000BF00BF0C212046A6
:100C200000F00FFA70BD70B52DED048B04460D4633
:100C3000A078012806D0022820D0032841D004281B
:100C40004CD145E06078012808D1E17829772179F5
:100C500069766179A976A179E9760EE06078022853
:100C60000BD1E178442041552179412041556179EA
:100C700042204155A1794320415530E0D4F803008A
:100C80006860D4F80700A86095ED020A10EE101A0B
:100C900008460DF069FD41EC180B95ED010A10EEC8
:100CA000101A08460DF060FD41EC190BB0EE481A21
:100CB000F0EE681AB0EE490AF0EE690AFFF7BEFDE1
:100CC0000DE0D4F80300E860D4F80700286106E0DE
:100CD000E0782870D4F80700686100E000BF00BF2A
:100CE000A0782A462146FFF747FFBDEC048B70BD74
:100CF00070B506460D461446FE202870AE70102EC4
:100D000006D0112E05D0122E04D0132E1DD109E0CD
:100D10001CE01BE0A08CA5F80300B4F84C00A5F87B
:100D2000070013E0D4E90D10091AE163D4E91710A4
:100D3000091A6166616BA163E16D2166E06BC5F81C
:100D40000300606EC5F8070000E000BF00BF0C2183
:100D5000284600F076F970BD08B5684605F078FAC7
:100D600008BD08B5684605F0BDFA08BD38B50446AB
:100D70006A46082120460BF0A3FD38BD10B5424855
:100D80000078012805D105F0A9F90CF025F805F047
:100D9000B6F910BD70B504466FF0040000F0D6FE41
:100DA0002046E11704EB5171C1F3C701374A1170B6
:100DB000E11704EB5171CD10354800683549B1FB9E
:100DC000F0F04543324800684FF47A71B1FBF0F01F
:100DD000314908804FF0E020006940F002004FF0F8
:100DE000E021086108464561006940F001000861A2
:100DF00070BD2DE9F047074600264FF0E020D0F8FF
:100E000014902248007807FB00F8FFF7A5FF4FF089
:100E1000E020856911E04FF0E0208469AC420CD0FD
:100E2000AC4202D2281B064403E0A9EB040028448C
:100E300006442546464500D300E0ECE700BFFFF737
:100E400090FFBDE8F08770B504460F480078A0B168
:100E50001248007888B910480088844206DB0E48A2
:100E6000008894FBF0F52846FFF780FF0A480088C9
:100E700094FBF0F100FB114084B24FF47A7104FB53
:100E800001F0FFF7B6FF70BD710000201E000020CA
:100E900058EA000840420F002000002070000020A7
:100EA00000BF704700BF714A128802F04002002A5A
:100EB000F9D0C2B26D4B9A80704710B588B0044625
:100EC0000121084601F084F90121102001F0DAF92E
:100ED00007220921664800F068FF07220A216448BA
:100EE00000F063FF4FF4C060069002208DF81C00F4
:100EF0008DF81D0000208DF81E0001208DF81F00C8
:100F000006A95B4800F0C6FE02940020ADF80C0074
:100F1000ADF80E00ADF81000ADF814000C20ADF8DF
:100F2000120002A9514801F00EFB01214F4801F0C7
:100F300092FB012240214D4801F03AFC0122802120
:100F40004A4801F035FC012240F22441474801F0B3
:100F500038FC25208DF8040001208DF805000220C2
:100F60008DF8060001208DF8070001A800F0A1FD12
:100F700008B010BD1CB53F48002101604160816090
:100F800005F0ACF840F22441384801F055FC002847
:100F900035D00021384803F0BFF800BF364803F0D1
:100FA00008F90028FAD131480088344908702F48E0
:100FB00080880870304803F0D2F8C0F10C002F4947
:100FC00008700C212C4803F0C8F82C4802782C49F2
:100FD00028480CF0E7FD4FF08151274803F015F940
:100FE0000121254803F098F82248007838B101A87B
:100FF00000230C221F49009022480AF073FA05F0E2
:101000007EF81CBD1CB50C2000211D4B174A121D7B
:10101000CDE900105106184800F054F90021164897
:1010200003F07AF800BF144803F0C3F80028FAD19F
:101030000C21114803F091F801210F4803F06CF8DE
:101040001CBD70B505460E46002400BF0BE0295DAF
:10105000064801F02BFB00BF4021044801F0D6FBFD
:101060000028F9D0641CB442F1D370BD00100140D7
:10107000000002409C140020406402402400002034
:10108000901400202C0C0020F8B504460D46208852
:1010900000F47F66B6F5207F09D0B6F5607F11D0E9
:1010A000B6F5B06F19D0B6F5E06F32D11BE005F19F
:1010B00040017F4800F02CFB05F118017C4800F04E
:1010C00027FB28E005F14001794800F021FB05F1FC
:1010D0001801774800F01CFB1DE06A4600217548A6
:1010E00008F0E1FF17E0E07A052801D100F04DF9A2
:1010F000207800F00F00012802D1E17A297707E07B
:10110000207800F00F00022802D1E17A44204155F6
:1011100001E00020F8BD00BF3046FBE710B504F049
:10112000DDFF634A0021644802F0A9FC634960487E
:10113000FFF7AAFF04F0E3FF10BD2DE9F04385B0EF
:1011400005460F4616464FF0000800BF00BF03F0EB
:1011500095FA804600BF00BF0095002001908DF8F1
:1011600008008DF809008DF80A60324639460DF105
:101170000B000CF017FD69464F4802F08BFB8146CF
:1011800001E0601C84B249464B4802F01BFC10B9D8
:10119000B4F5004FF5DB00BF00BF404603F072FA24
:1011A00000BF00BFB4F5004F03DB012005B0BDE870
:1011B000F0830020FAE72DE9F0418AB004460D469D
:1011C00016461F46DDF840800121084601F000F870
:1011D0000121480601F045F84FF4C0500890022064
:1011E0008DF8240000208DF8260003208DF82500BE
:1011F00001208DF8270008A9314800F04BFD092295
:101200000B212F4800F0D1FD09220C212C4800F0C1
:10121000CCFD00208DF81A008DF81B008DF81C0005
:1012200001208DF81D0000208DF81E008DF81F0094
:101230008DF816808DF817408DF818608DF81950CC
:10124000ADF8147005A91C4802F0ABF900208DF828
:101250000E008DF80F0001208DF810000020ADF871
:101260000400ADF80600ADF80800ADF80A00ADF8CE
:101270000C0001208DF8110001A802F01CFA0122D7
:1012800002210D4802F016FD14208DF80000012007
:101290008DF8010000208DF8020001208DF8030078
:1012A000684600F006FC00200AB0BDE8F0810000AE
:1012B000A8140020DC130020006400400414002067
:1012C000000002402DE9F0438FB007460C4615465A
:1012D0001E46DDE916890121480500F079FF01214C
:1012E000880500F075FF384602F03AFE00BF384628
:1012F00002F05FFF0028FAD1009401950296CDF824
:101300000C80CDF8109005904FF48060069000207E
:101310000790089009904FF480300A9000200B90BD
:1013200003200C9000200D900E906946384602F084
:10133000B9FE0FB0BDE8F083F8B507460C46154678
:101340001E4601221021384602F073FF8DF800403E
:101350008DF801508DF8026001208DF80300684679
:1013600000F0A7FBF8BD70B505460C4645F2555098
:1013700002F0CAFF284602F0CAFF204602F0CAFF68
:1013800002F0CBFF02F0CEFF70BD10B502F0C5FF3A
:1013900010BD00001CB50121202000F019FF4FF402
:1013A000C060009001208DF8040000208DF8060038
:1013B0008DF8070003208DF805006946044800F009
:1013C00069FC4FF4C061024800F0E0FC1CBD000065
:1013D000001402401CB50121112000F0F9FE1C2070
:1013E000009000208DF8040003208DF805000120F6
:1013F0008DF807006946354800F04CFC012000904C
:1014000002208DF807006946314800F043FC1CBDFE
:1014100010B5044614B101202E4908702D480078FB
:10142000002837D01021294800F096FC78B1082117
:10143000264800F091FC50B10421244800F08CFCB7
:1014400028B10121224800F087FC012822D10A207E
:10145000FFF7F9FC00201F49087010211B4800F01D
:101460007BFC08B9012010BD0821184800F074FC6D
:1014700008B90220F7E70421144800F06DFC08B910
:101480000320F0E70121124800F066FC01281BD17F
:101490000420E8E710210D4800F05EFC012813D17C
:1014A00008210A4800F058FC01280DD10421074802
:1014B00000F052FC012807D10121054800F04CFC46
:1014C00010B90120034908700020CCE70010024049
:1014D000000002402C00002038B504460D468DF86F
:1014E0000050E0B28DF80100022269460020FFF7AB
:1014F00024FE38BD30B50446157B507B45EA0023F9
:10150000108800F47F60B0F5B06F06D1D07A602803
:1015100003D1994201D1012030BD0020FCE710B574
:101520000246002346F27804101BA24227D013DCA7
:1015300046F26004A2EB0400A2421AD007DCA2F536
:101540008040A0F5015080B1012822D10FE004288D
:1015500011D00C281DD110E0092812D00B2812D070
:101560000C2812D0872814D111E0102311E0102389
:101570000FE008230DE020230BE0202309E01023D7
:1015800007E0202305E0202303E0202301E02023BF
:1015900000BF00BFB1F5C06F10D1082B06D0102BD3
:1015A00006D0182B06D0202B19D105E02F2010BD16
:1015B0002B20FCE72720FAE72320F8E7082B06D0AA
:1015C000102B06D0182B06D0202B08D105E04F2079
:1015D000EDE74B20EBE74720E9E74320E7E7002072
:1015E000E5E77FB506460C461546002001900290BF
:1015F00006F5C06086B24FF4C0612046FFF78FFF4A
:101600008DF80400E0B28DF80500200A8DF8060080
:1016100000208DF80700029500BF082201A930467E
:10162000FFF78BFD0028F8D103A800231A461421E8
:1016300000906E4808F0FAFA6D4A21463046FFF7EE
:1016400059FF04B070BD7FB505460C4600200190DF
:10165000029005F5C06085B24FF4B0612046FFF7F7
:101660005EFF8DF80400E0B28DF80500200A8DF8C9
:10167000060000208DF8070000BF082201A92846B7
:10168000FFF75BFD0028F8D103A800231A461421B8
:101690000090564808F0CAFA554A21462846FFF7F6
:1016A00029FF04B070BDF8B507460D461446217BEE
:1016B000607B41EA0026AE4226D14FF4B061284655
:1016C000FFF72DFFE17A88421ED1E07A432816D039
:1016D00047280CD04B2805D04F2814D1E07B8DF83B
:1016E000000010E0B4F80F00ADF800000BE0B4F813
:1016F0000F10ADF80010607C8DF8020003E0D4F804
:101700000F00009000BF01E00020F8BD0098FCE74A
:1017100002460878137803F00F03984201D10020A5
:101720007047108800F47F60B0F5207F03D1D2F8B5
:101730000D00C86108E0108800F47F60B0F5607F9C
:1017400002D1B2F80D0088810120E9E770B50546A5
:101750000024002600BF00BF02F090FF064600BF35
:1017600000BF29460020FFF7B7FE062246F24001DF
:101770000120FFF736FF08B1601CC4B2062246F212
:1017800040010220FFF72DFF08B1601CC4B2072200
:1017900046F240010120FFF724FF08B1601CC4B2EB
:1017A000072246F240010220FFF71BFF08B1601C30
:1017B000C4B240F20F1246F240010120FFF711FFC0
:1017C00008B1601CC4B240F20F1246F24001022080
:1017D000FFF707FF08B1601CC4B200BF00BF30466E
:1017E00002F050FF00BF00BF204670BDDC13002098
:1017F000A814002070B505460C4607E0601EC4B270
:101800000CB9002070BD6420FFF7F3FA002DF5D16C
:101810000120F7E72DE9F04104460D461646012761
:1018200001240F20FFF7E5FAE043C4B23146284611
:10183000FFF7E0FF074617B93846BDE8F081002101
:101840007E4801F039F901217C4801F075F93146F3
:101850002846FFF7CFFF07460021784801F06CF9D2
:101860003846EAE770B52DED048B82B004460125B9
:1018700034B1012C0FD0022C19D0032C2ED121E031
:101880006F4A1268D1B26F4AD2F8A022D0B2322287
:10189000FFF7C0FF23E06A4A08321268D1B2694AF2
:1018A000D2F8A822D0B23222FFF7B4FF17E0664A7E
:1018B0001268D1B2654AD2F88022D0B23222FFF744
:1018C000A9FF0CE0604A283A1268D1B25F4AD2F808
:1018D0008822D0B23222FFF79DFF00E000BF00BF98
:1018E00025B9284602B0BDEC048B70BD002004EB86
:1018F0004401574A02EB81010872504801F0E0F8B8
:101900004FF4AA7100FB01F630460CF026FD9FED66
:10191000510B53EC102B0CF05DFB0CF075FA04EB43
:1019200044014B4A42F8210001A80BF027FA04EBCE
:101930004401474A02EB810148602846D2E70EB5D0
:101940003AE002A8002108230A46CDE9001002214E
:10195000424805F080FC0546BDF8080060BB05F074
:10196000020018B318E000240EE0E0B2FFF77AFF9F
:1019700002A8002108233222CDE9001004213748B3
:1019800005F069FC0546641C032CEEDD02AB002269
:101990000121324806F043F905F004000028E2D0A6
:1019A00002AB012202212D4806F039F902AB0122D7
:1019B00004212A4806F033F9C3E71CB501210820A9
:1019C00000F006FC0121042000F002FC01208DF84B
:1019D000040000208DF806004FF4A0600090012064
:1019E0008DF8070003208DF8050069461C4800F0BB
:1019F00051F90520009069461A4800F04BF9002083
:101A00008DF8040002208DF807004FF4206000904C
:101A10006946134800F03EF942F20800009069461A
:101A2000104800F037F94FF4A0610D4800F0B0F90C
:101A300042F201010B4800F0ABF91CBD0010004060
:101A4000248241420080414234024142000041422E
:101A5000BC1400200000000000007940B4130020F6
:101A6000000C02400008024009488047094800472E
:101A7000FEE7FEE7FEE7FEE7FEE7FEE7FEE7FEE73E
:101A8000FEE7FEE704480549054A064B704700009B
:101A9000090700088901000818350020183B0020BC
:101AA000183700201837002032490143324A1160AC
:101AB000704770B5002100230F22C4781CB32E4C50
:101AC000246804F4E064C4F5E064C4F30721C1F1C0
:101AD0000404E3B20A4144789C40E1B284781440A3
:101AE00021430C07210E254C05786155047804F03C
:101AF0001F050124AC4005786D11AD0005F1E0250E
:101B0000C5F8004109E0047804F01F050124AC4049
:101B10001B4D0678761145F8264070BD194A0A40DB
:101B20000243154B1B1F1A60704739B1124A121D30
:101B300012680243104B1B1D1A6006E00E4A121D6C
:101B4000126882430C4B1B1D1A607047042808D191
:101B50004FF0E021096941F004014FF0E0221161EA
:101B600007E04FF0E021096921F004014FF0E02285
:101B7000116170470000FA050CED00E000E400E0A0
:101B800080E100E080FFFF1F10B5044698488442C2
:101B900008D10121084600F086FB0021012000F059
:101BA00082FB76E09348844208D10121022000F0B4
:101BB0007AFB0021022000F076FB6AE08E48844226
:101BC00008D10121042000F06EFB0021042000F068
:101BD0006AFB5EE08948844208D10121082000F0B8
:101BE00062FB0021082000F05EFB52E08448844242
:101BF00008D10121102000F056FB0021102000F038
:101C000052FB46E07F48844208D10121202000F0A9
:101C10004AFB0021202000F046FB3AE07A4884424B
:101C200008D10121402000F03EFB0021402000F0BF
:101C30003AFB2EE07548844208D10121802000F053
:101C400032FB0021802000F02EFB22E0704884420D
:101C500008D10121801500F026FB0021A01500F01D
:101C600022FB16E06B48844208D10121401500F0A8
:101C70001AFB0021601500F016FB0AE0664884425A
:101C800007D10121001500F00EFB0021201500F006
:101C90000AFB10BDF0B50A4600210023002400BF56
:101CA0003DE0012505FA01F3156805EA03049C42AD
:101CB00034D105684F000326BE40B5430560157951
:101CC0004E00B5400668354305601579012D02D0F8
:101CD0001579022D16D185684F000326BE40B54305
:101CE000856055794E00B540866835438560456806
:101CF00001268E40B5434560456896798E40B6B260
:101D000035434560C5684F000326BE40B543C560F6
:101D1000D5794E00B540C6683543C560491C1029C9
:101D2000BFD3F0BD4FF6FF71016000210171417119
:101D30008171C171704708B54FF480320092009AEA
:101D40000A430092009AC261C161009AC261C269ED
:101D50000092C269009208BD0246002013690B4040
:101D60000BB1012000E0002070470146086980B2F5
:101D700070470246002053690B400BB1012000E080
:101D8000002070470146486980B270470183704760
:101D9000418370470AB1018300E04183704741618C
:101DA000704742694A4042617047F0B50023002401
:101DB0004D07ED0E02FA05F3CE1000F1200555F89F
:101DC00026504E07F70E0F26BE40B543CF1000F148
:101DD000200646F82750CE1000F1200555F8265071
:101DE00045EA0304CE1000F1200545F82640F0BD79
:101DF000000002400004024000080240000C0240C3
:101E0000001002400014024000180240001C024072
:101E1000002002400024024000280240F9480068E7
:101E200040F00100F74908600020F64908310860D9
:101E3000F4480068F4490840F2490860F348091D75
:101E40000860F348EF4984310860F0481038091DF4
:101E50000860EC48006820F48020EA49086000200F
:101E6000E8490C310860E7498C310860704700216F
:101E7000E44A921C117011460870704710B5014673
:101E80000022002300204A11012A02D1DD4C2368E0
:101E900008E0022A03D1DB4C7034236802E0D94CFD
:101EA0007434236801F01F02012494401C400CB1DB
:101EB000012000E0002010BD38B500200090002473
:101EC000002500BF3120FFF7D9FF05460098401CD0
:101ED00000900098B0F5A04F01D0002DF2D0312035
:101EE000FFF7CCFF08B1012400E00024204638BDF4
:101EF00001460020C34A106820F0F80040EAC10003
:101F000010607047C349086070470021BD4A7032B5
:101F100011701170012802D004280AD104E00121B7
:101F2000B84A7032117005E00521B64A703211705E
:101F300000E000BF00BF7047B7490860704770B548
:101F4000049C41EA82150126C6EB530645EA064584
:101F5000054345EA0465AB4E361D356070BDAD499D
:101F600008667047820142EA0172A64B84331A6008
:101F70007047A8498866704710B5830143EA01633A
:101F800043EA02739F4C8834236010BDA14908675F
:101F90007047A049C864704702460020994B083337
:101FA000186820F0EC6042EA01031843954B0833AF
:101FB0001860704702460020924B0833186820F0E2
:101FC000784042EA010318438E4B0833186070478B
:101FD000014600208B4A0832106820F003000843B5
:101FE0001060704787480830006800F00C007047A8
:101FF00001460020834A0832106820F0F0000843B0
:1020000010607047014600207E4A0832106820F4B4
:10201000E05008431060704701460020794A0832BA
:10202000106820F4604040EAC10010607047F0B5CD
:10203000002100220024022500260223714F0837C8
:102040003F6807F00C0121B1042905D0082937D1D8
:1020500005E0724F076036E0714F076033E0694F6B
:102060003F1D3F68C7F38056664F3F1D3F6807F02E
:102070003F036EB16A4FB7FBF3F7DFF888C10CF18D
:10208000040CDCF800C0CCF3881C07FB0CF40CE05B
:10209000624FB7FBF3F7DFF86CC10CF1040CDCF80E
:1020A00000C0CCF3881C07FB0CF4564F3F1D3F6863
:1020B000C7F301477F1C7D00B4FBF5F7076002E022
:1020C000564F076000BF00BF4E4F08373F6807F00C
:1020D000F0010909534F7A5C0768D7404760494FC0
:1020E00008373F6807F4E051890A4E4F7A5C476829
:1020F000D7408760434F08373F6807F46041490B7A
:10210000484F7A5C4768D740C760F0BD002100F4B3
:102110004072B2F5407F0AD13A4A0832116821F480
:10212000F811414A02401143364A08321160354ADB
:1021300070321268C0F30B031A43324B70331A60CB
:102140007047354944390860704733494039086061
:10215000704736490860704701460020294A8C3292
:10216000106820F01F004A1E1043264A8C3210606F
:10217000704701460020234A8C32106820F4F85042
:102180004A1E40EA02201F4A8C3210607047014606
:1021900000201C4A8C32106820F440100843106064
:1021A000704701460020174A8C32106820F4400026
:1021B00008431060704701460020124A8C321068B4
:1021C00020F4403008431060704719490860704798
:1021D00039B10C4A3032126802430A4B30331A606C
:1021E00006E0084A303212688243064B30331A60E8
:1021F0007047F9B1034A343212680243014B343359
:102200001A601CE000380240FFFFF6EA103000249C
:102210000030002000004742800E47420024F400B6
:1022200000127A002D000020FFFCFF0F5C014742E6
:10223000E01147428F4A126882438E4B1A60704702
:1022400039B18C4A121D126802438A4B1B1D1A6059
:1022500006E0884A121D12688243864B1B1D1A60D5
:10226000704739B1834A0C3212680243814B0C33F8
:102270001A6006E07F4A0C32126882437D4B0C33B1
:102280001A60704739B17B4A103212680243794BA9
:1022900010331A6006E0774A103212688243754B99
:1022A00010331A60704739B1724A243A12680243F7
:1022B000704B243B1A6006E06E4A243A126882434F
:1022C0006C4B243B1A60704739B16A4A203A126855
:1022D0000243684B203B1A6006E0664A203A1268C7
:1022E0008243644B203B1A60704739B1614A1C3A03
:1022F000126802435F4B1C3B1A6006E05D4A1C3AC1
:10230000126882435B4B1C3B1A60704739B1594AD3
:10231000143A12680243574B143B1A6006E0554AC0
:10232000143A12688243534B143B1A60704739B118
:10233000504A103A126802434E4B103B1A6006E0B6
:102340004C4A103A126882434A4B103B1A6070475D
:1023500039B1484A1C3212680243464B1C331A609A
:1023600006E0444A1C3212688243424B1C331A6016
:10237000704739B13F4A2032126802433D4B203347
:102380001A6006E03B4A203212688243394B203300
:102390001A60704739B1374A243212680243354B0C
:1023A00024331A6006E0334A243212688243314BE8
:1023B00024331A60704739B12E4A2C321268024316
:1023C0002C4B2C331A6006E02A4A2C3212688243C6
:1023D000284B2C331A60704739B1264A30321268C4
:1023E0000243244B30331A6006E0224A303212682E
:1023F0008243204B30331A607047012808D11D49B1
:102400003C31096841F008011A4A3C32116007E08A
:1024100018493C31096821F00801164A3C32116024
:10242000704739B1134A273A12780243114B273BC0
:102430001A7006E00F4A273A127882430D4B273B69
:102440001A7070470B484030006840F080700949AE
:1024500040310860704701460020064A283A126859
:102460000A400AB1012000E00020704701492639E6
:10247000087070473438024010B50446FA48844268
:1024800008D101211020FFF752FF00211020FFF793
:102490004EFF57E0F548844209D101214804FFF777
:1024A00035FF00214FF40030FFF730FF4AE0F048DD
:1024B000844209D101218804FFF728FF00214FF44D
:1024C0008020FFF723FF3DE0EA48844209D1012143
:1024D000C804FFF71BFF00214FF40020FFF716FF91
:1024E00030E0E548844209D101210805FFF70EFFDD
:1024F00000214FF48010FFF709FF23E0DF488442FA
:1025000008D101212020FFF712FF00212020FFF732
:102510000EFF17E0DA48844209D101218807FFF74E
:10252000F5FE00214FF08040FFF7F0FE0AE0D548AD
:10253000844207D101214005FFF7E8FE0021600534
:10254000FFF7E4FE10BD2DE9FF4705460E460024C7
:10255000A14600BFA046B08900B100BF2C8A24F478
:102560004054F08804432C82AC8941F20C608443CF
:10257000B08831890843718908430443AC81AC8A2F
:1025800024F44074B0890443AC826846FFF74FFDE1
:10259000B548854202D0B948854202D1DDF80C9099
:1025A00001E0DDF80890A88900F4004040B109EB93
:1025B000C90000EB091031684900B0FBF1F707E0F2
:1025C00009EBC90000EB091031688900B0FBF1F795
:1025D0006420B7FBF0F004012009642101FB1078AE
:1025E000A88900F4004040B1322000EBC800B0FBE5
:1025F000F1F000F00700044308E0322000EB08107F
:102600006421B0FBF1F000F00F0004432C81BDE821
:10261000FF874FF41651016000218180C180018144
:102620000C21418100218181704710B502460020B4
:10263000108A20F470600B884C8823438C882343D5
:10264000CC8823431843108210BD002101804180B3
:102650008180C180704721B1828942F40052828119
:1026600004E082894DF6FF731A4082817047028B25
:1026700002F47F420283028B0A430283704721B136
:10268000828942F40042828103E08289C2F30E0211
:102690008281704721B1828A42F40062828204E022
:1026A000828A4FF2FF731A4082827047C1F3080298
:1026B0008280704701468888C0F308007047028A0C
:1026C0004FF6F0731A400282028A0A430282704770
:1026D00021B1828942F00202828104E082894FF6B0
:1026E000FD731A408281704782894FF2FF731A404E
:1026F000828182890A4382817047028A4FF6DF73A2
:102700001A400282028A0A430282704721B1028A79
:1027100042F48042028204E0028A4BF6FF731A40C0
:1027200002827047818941F001018181704721B1A6
:10273000828A42F00802828204E0828A4FF6F773AE
:102740001A4082827047028BD2B20283028B42EA25
:1027500001220283704721B1828A42F020028282E4
:1027600004E0828A4FF6DF731A408282704721B1FB
:10277000828A42F01002828204E0828A4FF6EF736E
:102780001A4082827047828A4FF6FB731A40828217
:10279000828A0A438282704721B1828A42F0020211
:1027A000828204E0828A4FF6FD731A40828270476B
:1027B0001AB1838A0B43838202E0838A8B4383822C
:1027C0007047F0B50346002400260025002040F69F
:1027D0006A17B94200D100BF1846C1F3421401F094
:1027E0001F06012707FA06F5012C01D10C3004E081
:1027F000022C01D1103000E014301AB107682F43C9
:10280000076002E00768AF430760F0BD02460020A2
:10281000B1F5007F00D100BF13880B400BB1012040
:1028200000E00020704701F40072B2F5007F00D193
:1028300000BFCA430280704770B5024600240023DF
:102840000025002040F66A16B14200D100BFC1F356
:10285000421501F01F03012606FA03F3012D13D1DF
:102860009689334017E0000000100140004400400A
:1028700000480040004C004000500040001401405F
:1028800000780040007C0040022D02D1168A3340BF
:1028900001E0968A33400C12012606FA04F41688E9
:1028A000344013B10CB1012000E0002070BD10B520
:1028B0000022002340F66A14A14200D100BF0A1290
:1028C00001249440A3B2DC43048010BD10B504463B
:1028D000FE48844208D101210846FFF728FD002167
:1028E0000120FFF724FD9DE0B4F1804F08D10121C4
:1028F0000846FFF70BFD00210120FFF707FD91E0DF
:10290000F348844208D101210220FFF7FFFC002197
:102910000220FFF7FBFC85E0EE48844208D101214C
:102920000420FFF7F3FC00210420FFF7EFFC79E01F
:10293000E948844208D101210820FFF7E7FC002183
:102940000820FFF7E3FC6DE0E448844208D1012150
:102950001020FFF7DBFC00211020FFF7D7FC61E01F
:10296000DF48844208D101212020FFF7CFFC00215D
:102970002020FFF7CBFC55E0DA48844208D1012142
:102980000220FFF7D4FC00210220FFF7D0FC49E031
:10299000D548844209D101210804FFF7C8FC002171
:1029A0004FF48030FFF7C3FC3CE0D048844209D1AB
:1029B00001214804FFF7BBFC00214FF40030FFF772
:1029C000B6FC2FE0CA48844209D101218804FFF7F0
:1029D000AEFC00214FF48020FFF7A9FC22E0C5489F
:1029E000844208D101214020FFF790FC00214020C3
:1029F000FFF78CFC16E0C048844208D101218020FA
:102A0000FFF784FC00218020FFF780FC0AE0BB4830
:102A1000844207D101218015FFF778FC0021A01521
:102A2000FFF774FC10BD00220288A84B98420ED01C
:102A3000AC4B98420BD0B0F1804F08D0A44B9842D9
:102A400005D0A44B984202D0A34B984204D14FF634
:102A50008F731A404B881A43A04B984207D0A04B63
:102A6000984204D04FF6FF431A400B891A43028064
:102A70004B68C3620B880385944B984202D0994BF4
:102A8000984201D18B7A03860123838270474FF0ED
:102A9000FF314160002101800181418081727047D6
:102AA0000185828270470A46002101884FF68F73A4
:102AB000194011430180704741627047C1627047FD
:102AC0000146486A70470146088D704721B1028867
:102AD00042F00202028004E002884FF6FD731A40C1
:102AE0000280704721B1028842F00402028004E0B3
:102AF00002884FF6FB731A400280704721B10288AA
:102B000042F08002028004E002884FF67F731A4090
:102B10000280704702884FF6F7731A4002800288DD
:102B20000A430280704702884FF6FF431A40028032
:102B300002880A430280704721B1028842F00102F4
:102B4000028004E002884FF6FE731A40028070474C
:102B500070B5002400220023058C4FF6FE76354028
:102B60000584028C8388048B4FF68F752C40B51E2C
:102B70002C400D882C43751E2A408D892A434D8890
:102B80002A43524DA84202D0564DA84213D14FF6C7
:102B9000F7752A40CD892A434FF6FB752A408D8868
:102BA0002A434FF6FF652B404FF6FF552B400D8A09
:102BB0002B434D8A2B43838004838D6845630284B5
:102BC00070BD70B5002400220023058C4FF6EF760F
:102BD00035400584028C8388048B48F6FF752C40B1
:102BE0004FF6FF452C400D884FF6FF7606EA052587
:102BF0002C434FF6DF752A408D8906EA05152A43D6
:102C00004D8806EA05152A43304DA84202D0354DBD
:102C1000A8421DD14FF67F752A40CD894FF6FF7629
:102C200006EA05152A434FF6BF752A408D8806EA45
:102C300005152A434FF6FF352B404FF2FF752B4009
:102C40000D8A06EA85052B434D8A06EA85052B4346
:102C5000838004838D688563028470BD70B5002411
:102C600000220023058C4FF6FF6635400584028C58
:102C70008388848B4FF68F752C404FF6FC752C4063
:102C80000D882C434FF6FF552A408D894FF6FF766D
:102C900006EA05252A434D8806EA05252A430B4DF9
:102CA000A84202D00F4DA84238D14FF2FF752A40FA
:102CB000CD894FF6FF7606EA05252A434FF6FF3504
:102CC0002A408D8806EA05252A4319E000000140C4
:102CD0000004004000080040000C004000100040CC
:102CE0000014004000040140004001400044014045
:102CF0000048014000180040001C00400020004037
:102D00004EF6FF752B404DF6FF752B400D8A06EAF7
:102D100005152B434D8A06EA05152B4383808483D2
:102D20008D68C563028470BD70B500220023002445
:102D3000058C4EF6FF7635400584038C8488828BA3
:102D400048F6FF752A404FF6FF452A400D884FF69A
:102D5000FF7606EA05252A434DF6FF752B408D893F
:102D600006EA05352B434D8806EA05352B43FE4D13
:102D7000A84202D0FD4DA84208D14BF6FF752C4069
:102D80000D8A4FF6FF7606EA85152C4384808283F0
:102D90008D680564038470BD0021018041808180BD
:102DA00081608181C18101824182704770B5034693
:102DB000002000241846183001258D40ACB21D8C2F
:102DC000A5431D8409B108290AD100EB61000568FB
:102DD0004FF68F76354005600568154305600FE0B6
:102DE0000D1FC5F34E052844056848F6FF763540AB
:102DF000056005684FF6FF7606EA02263543056052
:102E000070BD4163704781637047C163704701645F
:102E100070470A460021018B4FF68F73194011430A
:102E2000018370470A460021018B48F6FF73194061
:102E30004FF6FF7303EA02231943018370470A46E2
:102E40000021818B4FF68F731940114381837047A6
:102E50000A460021818B48F6FF7319404FF6FF7335
:102E600003EA02231943818370470A460021018B3C
:102E70004FF6F77319401143018370470A4600214A
:102E8000018B4FF2FF7319404FF6FF7303EA0223E1
:102E90001943018370470A460021818B4FF6F7736F
:102EA00019401143818370470A460021818B4FF2FC
:102EB000FF7319404FF6FF7303EA0223194381831E
:102EC00070470A460021018B4FF6FB7319401143EE
:102ED000018370470A460021018B4FF6FF331940EA
:102EE0004FF6FF7303EA02231943018370470A4632
:102EF0000021818B4FF6FB7319401143818370478A
:102F00000A460021818B4FF6FF3319404FF6FF73BD
:102F100003EA02231943818370470A460021018B8B
:102F20004FF67F7319401143018370470A46002111
:102F3000018BC1F30E014FF6FF7303EA022319431D
:102F4000018370470A460021818B4FF67F73194039
:102F50001143818370470A460021818BC1F30E0122
:102F60004FF6FF7303EA02231943818370470A4631
:102F70000021018C4FF6FD73194011430184704705
:102F80000A460021018C4FF6F77319401143018462
:102F900070470A460021018C4FF6DF7319404FF647
:102FA000FF7303EA02131943018470470A460021A4
:102FB000018C4FF67F7319404FF6FF7303EA02133B
:102FC0001943018470470A460021018C4FF6FF53D4
:102FD00019404FF6FF7303EA022319430184704737
:102FE0000A460021018C4FF2FF7319404FF6FF7320
:102FF00003EA02231943018470470A460021018C29
:103000004DF6FF7319404FF6FF7303EA023319437D
:103010000184704730B5002301248C40A3B2048C96
:103020009C430484048C02FA01F5ADB22C43048461
:1030300030BD30B5002304248C40A3B2048C9C43E3
:103040000484048C02FA01F5ADB22C43048430BD33
:10305000828B4FF2FF331A408283828B4FF6FF73CD
:1030600003EA01231A4382837047F0B50C461546E4
:10307000002100220026078C4EF6FF7C07EA0C0791
:103080000784818B028C4FF6FF7707EA043640F6FF
:10309000FF4739404FF6FF7707EA052739434FF6D8
:1030A000FF7707EA0337394345F6FF773A4046F49E
:1030B00080573A4381830284F0BD828B4FF6F373CD
:1030C0001A408283828B0A4382837047F0B50C4694
:1030D0001546002100220026078C4FF6FF6C07EAF8
:1030E0000C070784818B028C4FF6FF7707EA0426D2
:1030F0004FF60C7739404FF6FF7707EA03172F4357
:1031000039434FF2FF573A4046F480773A43818380
:103110000284F0BD028B4FF2FF331A400283028B10
:103120004FF6FF7303EA01231A4302837047F0B599
:103130000C461546002100220026078C4FF6EF7C36
:1031400007EA0C070784018B028C4FF6FF7707EA2A
:10315000041640F6FF4739404FF6FF7707EA03377A
:1031600039434FF6FF7703E00000014000040140BF
:1031700007EA052739434FF65F773A4046F01007D4
:103180003A4301830284F0BD028B4FF6F3731A4079
:103190000283028B0A4302837047F0B50C46154642
:1031A00000210022068C4FF6FE773E400684018BFC
:1031B000028C4FF60C7631407E1C06EA03162E4335
:1031C00031434FF6F576324044F001063243018335
:1031D0000284F0BD70B505460C46208850B923899D
:1031E000A28861882846FFF7D8FFE1882846FFF7C4
:1031F000CBFF25E0208804280AD12389A288618892
:103200002846FFF794FFE1882846FFF783FF17E081
:10321000208808280AD12389A28861882846FFF7D8
:1032200055FFE1882846FFF748FF09E02389A28877
:1032300061882846FFF719FFE1882846FFF708FF55
:1032400070BD002101804180012181800021C18069
:10325000018170472DE9F04105460C460026012703
:10326000608808B9022600E00026A088012801D164
:10327000022700E001272088A0B92389A28861885D
:103280002846FFF78AFFE1882846FFF77DFF23895C
:103290003A4631462846FFF74AFFE1882846FFF7BD
:1032A00039FF13E02389A28861882846FFF73FFF92
:1032B000E1882846FFF72EFF23893A463146284603
:1032C000FFF76BFFE1882846FFF75EFFBDE8F0815E
:1032D0000146486B70470146886B70470146C86BD2
:1032E00070470146086C70470A884B881A438B88E0
:1032F0001A43CB881A430B891A434B891A438B898B
:103300001A43A0F844207047002101804180818049
:10331000C180018141818181704731B1B0F8442081
:1033200042F40042A0F8442005E0B0F84420C2F383
:103330000E02A0F84420704721B1828842F00402B6
:10334000828004E082884FF6FB731A4082807047C7
:1033500021B1828842F00102828004E082884FF627
:10336000FE731A40828070471AB183890B438381B0
:1033700002E083898B4383817047818270470246D4
:103380000020138A0B400BB1012000E000207047A1
:10339000CA430282704730B5024600200023002451
:1033A000158A05EA0103958905EA010413B10CB1F8
:1033B000012000E0002030BDCA430282704741EA8C
:1033C0000203A0F8483070471AB183890B43838108
:1033D00002E083898B438381704721B1828842F068
:1033E0000802828004E082884FF6F7731A408280D8
:1033F000704701894FF6F8721140018170470A4603
:10340000002101894FF68F731940114301817047E4
:1034100030B504460D4629462046FFF7F0FF2089C7
:1034200040F00700208130BD2DE9F04104460D46F3
:1034300016461F46602D06D13B46012231462046E6
:10344000FFF775FE05E03B46012231462046FFF7B7
:10345000A4FE29462046FFF7D2FF208940F007004E
:103460002081BDE8F08130B50C4600210189C9B248
:103470004FF6FF7505EA03251543254329430181CE
:1034800030BD2DE9F04105460E461746984600240A
:1034900043463A4631462846FFF7E5FF2C894FF66A
:1034A000F870044044F007044FF68F70044044F075
:1034B00070042C81BDE8F081F0B504460D46164637
:1034C0001F463B46324629462046FFF7CCFF20895F
:1034D00040F480402081F0BD82884FF68F731A40FF
:1034E000828082880A438280704702894FF6F8738F
:1034F0001A40028102890A430281704702894FF60D
:103500007F731A40028102890A4302817047F0B535
:103510000C4615461E460021002200230189028B1D
:10352000038C4FF6F877394021434FF6FC473A4079
:1035300040F201173A434FF6DD773B404FF6FF77F5
:1035400007EA06172F433B43018102830384F0BD42
:1035500021B1828842F08002828004E082884FF6A6
:103560007F731A4082807047A0F8501070470000A7
:1035700010B50446FE48844209D101214806FEF7F1
:10358000C5FE00214FF00070FEF7C0FE08E00121EB
:103590008806FEF7BBFE00214FF08060FEF7B6FE06
:1035A00010BD30B5024600200023146824F0020448
:1035B0001460146844F00104146000E05B1C54685B
:1035C00004F001041CB94FF6FF74A342F6D154680D
:1035D00004F001040CB900206CE08C79012C04D1BA
:1035E000146844F08004146003E0146824F080043C
:1035F0001460CC79012C04D1146844F040041460A8
:1036000003E0146824F0400414600C7A012C04D107
:10361000146844F02004146003E0146824F02004CB
:1036200014604C7A012C04D1146844F01004146026
:1036300003E0146824F0100414608C7A012C04D187
:10364000146844F00804146003E0146824F00804CB
:103650001460CC7A012C04D1146844F00404146082
:1036600003E0146824F0040414608C78A407CD7877
:1036700044EA05640D7944EA05444D7944EA055469
:103680000D886D1E2C43D461146824F0010414606D
:10369000002300E05B1C546804F001041CB14FF6E9
:1036A000FF74A342F6D1546804F001040CB1002069
:1036B00000E0012030BD10B50021837A012202FA1A
:1036C00003F1AC4A126842F00102AA4B1A60A94AFF
:1036D0001C3212688A43A74B1C331A60027BCAB99A
:1036E000A44A0C3212688A43A24B0C331A604288F7
:1036F000C38842EA03439F4A4032847A42F8343016
:103700000288838842EA03439A4A4032847A02EB71
:10371000C4025360027B012A19D1964A0C32126806
:103720000A43944B0C331A604288038842EA0343ED
:10373000904A4032847A42F83430C288838842EA20
:1037400003438C4A4032847A02EBC4025360C27A4B
:103750003AB9884A121D12688A43864B1B1D1A60AB
:1037600006E0844A121D12680A43824B1B1D1A6030
:10377000028932B97F4A143212688A437D4B14336E
:103780001A600289012A06D17A4A143212680A4361
:10379000784B14331A60427B012A06D1754A1C32D9
:1037A00012680A43734B1C331A60724A126822F083
:1037B0000102704B1A6010BD00218171C17101724C
:1037C00041728172C1728170C17003210171022145
:1037D00041710121018070476649096841F001018A
:1037E000644A11601146096843F60E729143614ABA
:1037F00011601146096841EA00211160114609680B
:1038000021F001011160704721B1026842F4803259
:10381000026003E0026822F4803202607047E1B186
:10382000026842F0800202604FF4C272125842F401
:1038300080734FF4C27213504FF4CA72125842F49C
:1038400080734FF4CA7213504FF4D272125842F47C
:1038500080734FF4D27213501BE0026822F0800292
:1038600002604FF4C272125822F480734FF4C27295
:1038700013504FF4CA72125822F480734FF4CA7274
:1038800013504FF4D272125822F480734FF4D27254
:103890001350704710B502460020936803F0806310
:1038A000B3F1806F00D110E0936803F00063B3F1CF
:1038B000006F01D1012008E0936803F08053B3F159
:1038C000805F01D1022000E00420042879D002F5B5
:1038D000C07303EB00131B6803F0010402F5C0730F
:1038E00003EB00131C600B7A7BB94B7A0C8843EA1C
:1038F000445302F5C07404EB00142468234302F51A
:10390000C07404EB0014236010E00B7A4C6843EAA7
:10391000C4034C7A234302F5C07404EB00142468FA
:10392000234302F5C07404EB001423608B7A03F088
:103930000F038B7202F5C07303EB00135B6823F077
:103940000F0402F5C07303EB00135C6002F5C07353
:1039500003EB00135B688C7A234302F5C07404EB1D
:10396000001463608B7B1C064B7B44EA034403E03A
:1039700000640040006600400B7B44EA0323CC7ADD
:10398000234302F5C07404EB0014A3608B7C1C0677
:103990004B7C44EA03440B7C44EA0323CC7B234363
:1039A00002F5C07404EB0014E36002F5C07303EB8E
:1039B00000131B6843F0010402F5C07303EB00130E
:1039C0001C6010BD10B50246002321B1012907D0AB
:1039D00002290FD109E09068F94C00EA04030BE0DA
:1039E0009068F84C00EA040306E09068F64C00EAA0
:1039F000040301E0002300BF00BFF44C181BA342E6
:103A000016D007DC83B16FF08060184470B10228D3
:103A100018D111E0B0F5007F10D0ED4C204448B132
:103A2000B0F5003F0ED10BE002230DE000230BE0C8
:103A3000002309E0002307E0012305E0012303E060
:103A4000012301E0002300BF00BFD8B210BD21B1A7
:103A5000012907D002290FD109E0826842F08002D3
:103A600082600AE0826842F40042826005E0826877
:103A700042F40002826000E000BF00BF704710B552
:103A800000F5D87303EB01131B6803F004031372F2
:103A9000137A53B900F5D87303EB01131B6840F296
:103AA000FF7404EA5353136009E000F5D87303EB85
:103AB00001131B686FF0604404EAD303536000F500
:103AC000D87303EB01131B6803F00203537200F574
:103AD000D87303EB01135B6803F00F03937200F5D7
:103AE000D87303EB01135B681B0AD37400F5D8731A
:103AF00003EB01139B68D37200F5D87303EB01133A
:103B00009B681C0A147300F5D87303EB01139B68C0
:103B10001C0C547300F5D87303EB01139B681B0E48
:103B2000937300F5D87303EB0113DB68D37300F5CF
:103B3000D87303EB0113DB681C0A147400F5D87307
:103B400003EB0113DB681C0C547400F5D87303EB12
:103B50000113DB681B0E937421B9C36843F0200383
:103B6000C36003E0036943F02003036110BD21B982
:103B7000C26842F02002C26003E0026942F0200203
:103B8000026170470246002019B9D36803F00300B0
:103B900006E0012903D1136903F0030000E00020CF
:103BA000704710B502460B4600204FF6FF71BBB9B7
:103BB000146824F0020444F00104146000E0491E7B
:103BC000546804F00304012C01D00029F7D1546893
:103BD00004F00304012C01D0002032E0012030E089
:103BE000012B13D1146824F00304146000E0491E73
:103BF000546804F003040CB10029F8D1546804F0AF
:103C000003040CB100201CE001201AE0022B17D1A4
:103C1000146824F0010444F00204146000E0491E1A
:103C2000546804F00304022C01D00029F7D1546831
:103C300004F00304022C01D0002002E0012000E087
:103C4000002010BD014600200A6822F0010242F067
:103C500002020A604A6802F00302022A00D101202F
:103C6000704701464FF6FF7200200B6823F00203F5
:103C70000B6000E0521E4B6803F00203022B01D1DF
:103C8000002AF7D14B6803F00203022B00D0012079
:103C90007047014600208A6902F0700070470146B3
:103CA00000208A69100E7047014600208A69C2F31D
:103CB000074070471AB143690B43436102E043690F
:103CC0008B434361704710B50246002001F4700336
:103CD00043B19369C1F3130423400BB101202DE0DC
:103CE00000202BE001F0807343B15368C1F313044B
:103CF00023400BB1012021E000201FE001F0006310
:103D000043B19368C1F3130423400BB1012015E0C4
:103D1000002013E001F0007343B1D368C1F3130432
:103D200023400BB1012009E0002007E01369C1F333
:103D3000130423400BB1012000E0002010BD00223D
:103D4000244B994202D10023836111E0C1F3130295
:103D500001F000730BB1C2600AE001F080630BB1A7
:103D6000026105E001F000630BB1826000E0426097
:103D700070470246002002EA01030BB1012000E077
:103D80000020704770B504460D4600266069284043
:103D9000002872D0B5F5807F69D01DDC082D42D097
:103DA00006DC012D2DD0022D31D0042D7FD134E041
:103DB000102D3ED0202D42D0402D78D145E000007E
:103DC00003000004000300080000031000010008C5
:103DD0000001FFF77000F030B5F5004F61D009DC4D
:103DE000B5F5007F4AD0B5F5806F4DD0B5F5006FC1
:103DF0005DD150E0B5F5803F2DD0B5F5003F56D1EF
:103E00002FE0A0685549FFF7B4FF064651E0E0688F
:103E10000321FFF7AEFF06464BE0E0680821FFF7FD
:103E2000A8FF064645E0E0681021FFF7A2FF06461E
:103E30003FE020690321FFF79CFF064639E0206937
:103E40000821FFF796FF064633E020691021FFF7AF
:103E500090FF06462DE060680821FFF78AFF0646BE
:103E600027E060681021FFF784FF064621E0A06983
:103E70000121FFF77EFF06461BE01BE0A06902213F
:103E8000FFF777FF064614E0A0690421FFF771FFF2
:103E900006460EE00BE0A0697021FFF76AFF0646B8
:103EA00007E060680421FFF764FF064601E0002692
:103EB00000BF00E00026304670BDB1F5007F3AD06B
:103EC0000FDC202928D006DC01291CD004291DD0B4
:103ED000082940D11DE0402921D0B1F5807F3AD199
:103EE00026E0B1F5004F31D006DCB1F5806F25D06A
:103EF000B1F5006F2FD124E0B1F5803F12D0B1F5BC
:103F0000003F28D111E0154A826025E00822C260F6
:103F100022E01022C2601FE0082202611CE0102291
:103F2000026119E00822426016E01022426013E0AC
:103F30000422426010E0042242600DE0042242604C
:103F40000AE0002282610422426005E000228261D0
:103F50000422426000E000BF00BF70470101010081
:103F6000016821F001010160002101604160816070
:103F7000C160016121214161DB49884204D13D21B9
:103F8000D94A103A91608CE0D7491831884205D15E
:103F90004FF47461D44A103A916082E0D2493031D2
:103FA000884205D14FF47411CF4A103A916078E0FD
:103FB000CD494831884205D14FF07461CA4A103A60
:103FC00091606EE0C8496031884204D1C749C64A51
:103FD000103AD16065E0C4497831884204D1C449BF
:103FE000C14A103AD1605CE0BF499031884204D1A7
:103FF000C049BD4A103AD16053E0BB49A83188425C
:1040000005D14FF03D51B84A103AD16049E0BA4964
:10401000884204D13D21B84A083A116041E0B649CE
:104020001831884205D14FF47461B34A083A1160DF
:1040300037E0B1493031884205D14FF47411AE4AAE
:10404000083A11602DE0AC494831884205D14FF063
:104050007461A94A083A116023E0A7496031884297
:1040600004D1A249A44A121F11601AE0A249783172
:10407000884204D19E49A04A121F116011E09E4956
:104080009031884204D19B499B4A121F116008E07D
:104090009949A831884204D14FF03D51964A121FE8
:1040A0001160704710B500220268944B1A40CC682A
:1040B0000B6823434C6923438C692343CC69234316
:1040C0000C6A23434C6A23438C6A23434C6B23437F
:1040D0008C6B23431A430260426922F00702D1E944
:1040E0000B3423431A4342610B6943604B6883607E
:1040F0008B68C36010BD0021016041608160C160B8
:10410000016141618161C161016241628162C1629B
:10411000016341638163704721B1026842F001028B
:10412000026003E0026822F001020260704721B1E0
:10413000026842F40042026003E0026822F4004296
:104140000260704721B1026842F02002026003E081
:10415000026822F020020260704741607047014609
:10416000486880B2704722B1036843F400230360BB
:1041700003E0036823F4002303600161704721B169
:10418000026842F48022026003E0026822F4802286
:10419000026070470AB1016100E0C16070470146EA
:1041A00000200A6802F400220AB1012000E0002089
:1041B0007047014600200A6802F001020AB101209E
:1041C00000E000207047014600204A6902F03800F4
:1041D000704730B503460A4600200024464DAB42E6
:1041E00002D24149103901E04349103902F000552B
:1041F0000DB14C6800E00C68414D2C4004EA02050A
:104200000DB1012000E0002030BD02463A4B9A4239
:1042100002D23548103801E03748103801F0005319
:104220001BB1374B0B40C36002E0354B0B40836042
:10423000704710B501F080034BB122B1436943F0E0
:104240008003436103E0436923F0800343618029D5
:104250000BD02AB1036801F01E042343036004E07D
:10426000036801F01E04A343036010BD70B502464D
:10427000002000240025204EB24202D21A4B103BEF
:1042800001E01D4B103B1F4E0E4036B11E2606EAC4
:10429000D124166806EA040502E0566906F0800596
:1042A00001F000560EB15C6800E01C68144E34400A
:1042B00004EA010616B10DB1012000E0002070BD36
:1042C00002460D4B9A4202D20748103801E00A48D4
:1042D000103801F000531BB1094B0B40C36002E0E2
:1042E000074B0B4083607047106002403D00002088
:1042F000400F002000003D20106402403F801CF071
:104300007D0F7D0F3C0F3C0F0E49086070470D4933
:10431000486070470B49886070474AF6AA200949EF
:10432000086070474CF6CC4006490860704701466B
:104330000020044AD2680A400AB1012000E00020AF
:1043400070470000003000401FB56846FDF76FFE63
:10435000019804B010BD10B5FFF7F6FF04461848E9
:10436000006840F0807016490860002015494860D8
:104370000846006840F001000860204600F0B7F8E9
:1043800010BD1049486870472DE9F0478246FFF795
:10439000DBFF4FF0000980460B4A002340464946A8
:1043A00009F049FB064632460B465046002109F00B
:1043B00042FB04460D4620462946BDE8F087000032
:1043C000FCED00E0001000E040420F0010B50024BA
:1043D00000BF00BF00F052F9044600BF00BF10212B
:1043E000A14800F0D2FA00BF00BF204600F04AF911
:1043F00000BF00BF10BD10B5FFF7E8FF10BD10B53E
:1044000000209A490860FFF7A6FF10BD10B5FFF71E
:10441000F6FFFFF7F0FF10BD00BFFEE770B50546E1
:104420000C46002614B900BFFFF7F6FF15B90A20A5
:10443000208070BD00BF00BF00F020F9064600BF1D
:1044400000BF10228849284600F056FF00BF00BF79
:10445000304600F017F900BF00BF0020208000BFE9
:10446000E7E72DE9F04105460C46002714B900BFE7
:10447000FFF7D2FF1DB90A202080BDE8F08110218E
:10448000284600F021FF0646102E15D200BF00BFBF
:1044900000F0F4F8074600BF00BF1022294672481A
:1044A00000F02AFF00BF00BF384600F0EBF800BF65
:1044B00000BF0020208002E04FF47A70208000BF0F
:1044C000DBE710B5FFF75DFF0446204610BD7047DF
:1044D00000B5014611B900BFFFF79EFF634A10689F
:1044E00008B1002201E04FF4FA620A8000BD5F4982
:1044F0000860704770B50546284600F0CAF80446C3
:10450000183C204670BD70B50546284600F0C1F83D
:104510000446103C204670BD70B50546284600F0A4
:10452000B8F8044600BF204670BD30B502460B46C1
:104530000024D2F1FF359C4126D24FF6FF74D2F110
:10454000FF359C410FD26FF07F44D2F1FF359C4183
:1045500003D2190E464C605C44E0190C444C645C78
:1045600004F108003EE0FF24D2F1FF359C4105D262
:10457000190A3F4C645C04F1100033E019463C4CCE
:10458000645C04F118002DE04FF6FF750024AD1AAD
:104590009C4115D26FF07F450024AD1A9C4107D293
:1045A000140E44EA0321324C645C04F1200019E04B
:1045B000140C44EA03412E4C645C04F1280011E021
:1045C0000024D2F1FF059C4107D2140A44EA03619A
:1045D000274C645C04F1300004E01146244C645C18
:1045E00004F1380030BD70B504460CB9082070BD28
:1045F000204600F051F805462846F8E770B5044615
:104600000CB9102070BD204600F046F8054628463B
:10461000F8E770B504460CB9202070BD204600F0C4
:104620003BF805462846F8E72DE9F04304460D46D9
:10463000002184EA01006940084302D14020BDE81E
:10464000F083E243E843521C40F1000102EA040611
:1046500001EA050730463946FFF767FF8046C8F193
:104660003F094846EBE70000EC1400204000002022
:1046700060E8000872B6704762B67047EFF31080CA
:1046800072B6704780F31088704730BF704720BF04
:104690007047B0FA80F0704790FAA0F0B0FA80F05E
:1046A000704790FAA0F070470146412903DB5A2970
:1046B00001DC012200E00022012A08D0612903DB8D
:1046C0007A2901DC012200E00022012A01D1012225
:1046D00000E00022104670470146412903DB5A29B9
:1046E00001DC012200E00022012A08D0612903DB5D
:1046F0007A2901DC012200E00022012A01D10122F5
:1047000000E00022012A08D0302903DB392901DC2E
:10471000012200E00022012A01D1012200E0002252
:10472000104670470146612903DB7A2901DC01222A
:1047300000E00022104670470146412903DB5A2958
:1047400001DC012200E000221046704701463029BA
:1047500003DB392901DC012200E00022104670470A
:104760000146302903DB372901DC012200E0002269
:10477000104670470146302901DB392907DD412900
:1047800001DB462903DD612903DB662901DC012207
:1047900000E00022104670470146202901D0092977
:1047A00001D1012200E00022104670470146202975
:1047B00009D00D2907D00A2905D00C2903D00929D1
:1047C00001D00B2901D1012200E0002210467047E0
:1047D0000146202903DB7E2901DC012200E00022C2
:1047E000104670470146212903DB7E2901DC0122A6
:1047F00000E00022104670470146202903DB7E2995
:1048000001DC012200E00022012A35D1202909D053
:104810000D2907D00A2905D00C2903D0092901D078
:104820000B2901D1012200E000222ABB412903DB30
:104830005A2901DC012200E00022012A08D0612966
:1048400003DB7A2901DC012200E00022012A01D1E8
:10485000012200E00022012A08D0302903DB392997
:1048600001DC012200E00022012A01D1012200E046
:1048700000220AB9012200E00022104670470146DA
:104880004AB2002A01DB1F2901DD7F2901D1012263
:1048900000E00022104670470146412903DB5A29F7
:1048A00001DC012200E00022012A02D101F12002F4
:1048B00000E00A46D0B270470146612903DB7A293D
:1048C00001DC012200E00022012A02D1A1F1200234
:1048D00000E00A46D0B27047F0B504460B462046C9
:1048E000FFF7EAFF05461846FFF7E6FF0646B54222
:1048F00001D1012000E0002007463846F0BD00004D
:10490000FC48FD4901600146416000218160C160B1
:10491000016141618161C16101620163C162416202
:10492000F6498163C1634FF48061016441640146CB
:10493000F34A116070472DE9F04105460B46944655
:104940000027002402E03F021F43641C042CFAD31A
:10495000604605F00306294646B1344603E001F8F7
:10496000013B401E641C08B1042CF8D30A4601E048
:1049700080C2001F0428FBD2114602E001F8013B6F
:10498000401E0028FAD1BDE8F08130B505460C463E
:10499000224600212846FFF7CEFF30BD2DE9F04F1B
:1049A00085B007468846914646463D46AE4207D901
:1049B0004A464146384601F01DF905B0BDE8F08F82
:1049C0004C4607EB0900451E08EB0900461EA81BD4
:1049D00004900498042834D305F00300029006F0F4
:1049E00003010191DDE90110884201D1012000E0BD
:1049F000002000900098012823D10298032810D0AD
:104A0000029840B2039008E016F8010905F8010980
:104A1000641E0398401E40B2039014B1039800280E
:104A2000F2DAA5F1030AA6F1030B04E05BF804092E
:104A30004AF80409241F042CF8D20AF103050BF1EB
:104A4000030604E016F8010905F80109641E002CAC
:104A5000F8D100BFB1E72DE9F84F804689461546E9
:104A600015B90120BDE8F88FB8F1000F01D1002081
:104A7000F8E7B9F1000F01D10020F3E7012429463E
:104A800008EB050209EB050302F0030C03F0030B2E
:104A9000DC4501D1012000E00020009000980128B1
:104AA00029D1BCF1000F12D0E2460AE0521E5B1E73
:104AB000107893F800E0704500D00024491EAAF158
:104AC000010A012C03D111B1BAF1000FEED1012C72
:104AD00011D116461F4608E0361F3F1F3068D7F831
:104AE00000E0704500D00024091F012C01D10429E9
:104AF000F2D232463B4608E0521E5B1E107893F815
:104B000000E0704500D00024491E012C01D100298D
:104B1000F2D12046A6E7F0B503460E461546D96BFE
:104B2000B1FBF5F005FB101CBCF1000F02D0A5EBAA
:104B30000C0200E000229419586CA04201D200201F
:104B4000F0BD0F191144DF63586C001B5864084610
:104B5000F6E72DE9F04106460F46B6FBF3FC03FBF2
:104B60001C6109B15C1A00E00024B2FBF3FC03FBFA
:104B70001C2109B15D1A00E0002502EB0508A7F130
:104B8000010C08FB0C4C0CEB0200BDE8F0812DE998
:104B9000FE4F8046894614461E46002000900CB900
:104BA00001AC00BF00202060524F00BF00BFFFF7E4
:104BB00065FD009000BF00BFF86B0290D7F844B0CD
:104BC0004B46424601210298FFF7C3FF05465D456B
:104BD0000FD900BF00BF0098FFF754FD00BF00BF12
:104BE000A5EB0B00206042F2E27030800020BDE8AF
:104BF000FE8F4A4641463846FFF78DFF8246BAF19E
:104C0000000F0CD100BF00BF0098FFF73BFD00BFB5
:104C100000BF256042F2E27030800020E7E700BF6D
:104C200000BF0098FFF72EFD00BF00BF42F21070DA
:104C300030805046DBE72DE9FC5F07460C46904686
:104C40000020009000BF00BFFFF718FD009000BFDC
:104C500000BFD7F80490D9F8380008B1484600E002
:104C600024488246DAF84450DAF83CB000BF00BF6E
:104C70000098FFF707FD00BF00BF012C0AD9BBFB5E
:104C8000F4F004FB10B60EB1A01B00E00020019070
:104C900001982D1A42F21070A8F800002846BDE8CD
:104CA000FC9F70B504460D462A4621461148FFF781
:104CB000C2FF0646304670BD18B942F211720A8032
:104CC0007047104A0260002242608260C260026146
:104CD00042618261C2610262826242630263C262B5
:104CE00042628263C2630264426442F210720A80CA
:104CF00000BFE5E7FC140020484541504415002062
:104D0000440000204E4F4E452DE9FF4F91B0044620
:104D1000DDE9208900200090B8F1000F02D10DF1EB
:104D2000180800BF0020C8F8000049462046FFF7D9
:104D3000C3FFB9F8000042F21071884202D015B0EA
:104D4000BDE8F08FFE48006820B942F2E770A9F88C
:104D50000000F4E7DFF8ECA30020059000BF00BFDF
:104D6000FFF78CFC009000BF00BF129880BB554637
:104D7000AB462E46DAF83C000D9004231A461499EF
:104D80000D98FFF7E6FE049004990D9808440C90E6
:104D9000DDE91E2314990C98FFF7DBFE0390DDE993
:104DA000030108440590DAF844700598B8427DD9AB
:104DB00000BF00BF0098FFF765FC00BF00BF05986B
:104DC000C01BC8F8000042F2E270A9F80000B6E784
:104DD000FFE712980B90DDE912010844401E0A908B
:104DE0000025AB46D64806683BE0B16B129881427D
:104DF00005D1316C1398814201D1354633E0B06B57
:104E00000990316CB06B0844401E0890DDE909013F
:104E1000814200D227E009990B98884203D8DDE946
:104E2000091088420FD209990B98884203D3089938
:104E30000A98884207D908990B9888420FD8089990
:104E40000A9888420BD300BF00BF0098FFF71AFCF6
:104E500000BF00BF42F27F70A9F800006FE7B346C1
:104E6000F668002EC1D100BF45B925461298A0634F
:104E70001298E0631398206413986064DAF83C0099
:104E80000D9004231A4614990D98FFF762FE0490C2
:104E9000DAF844700498B84211D900BF00BF0098F6
:104EA000FFF7F0FB00BF00BF049800E024E0C01B48
:104EB000C8F8000042F2E270A9F800003FE7E86B92
:104EC0000C90DDE91E2314990C98FFF742FE039025
:104ED0006F6C0398B8420FD900BF00BF0098FFF76E
:104EE000D1FB00BF00BF0398C01BC8F8000042F20E
:104EF000D870A9F8000022E71498800002900422DC
:104F000050460299FFF707FE0F900F9830BBDAF872
:104F1000447000BF00BF0098FFF7B4FB00BF00BFA4
:104F2000129858B90598B84204D90598C01BC8F81A
:104F300000000EE00598C8F800000AE00298B842A8
:104F400004D90298C01BC8F8000002E00298C8F813
:104F5000000042F2E270A9F80000F0E600200190A3
:104F600034E02846DDE91E12FFF7D5FD0E900E98BD
:104F700020BBE86B0C906F6C00BF00BF0098FFF780
:104F800081FB00BF00BF01991498401A0790DDE92A
:104F90001E2307990C98FFF7DCFD05900598B84291
:104FA00004D90598C01BC8F8000002E00598C8F8AD
:104FB000000042F2D870A9F80000C0E6019ADDE9CD
:104FC0000E0141F822000198401C019014990198AB
:104FD0008842C6D3A5420DD1C4F808B0E660BBF143
:104FE000000F02D0CBF80C4001E0554804605EB1E0
:104FF000B46009E0686910902561109860616C6187
:10500000109808B1109804614F48206065600C98B2
:10501000A06103990C980844401EE0610F9820623B
:105020000398A0621F9860631E9820631498E06242
:105030001498606200BF00BF0098FFF723FB00BF19
:1050400000BF42F21070A9F8000000BF77E62DE91A
:10505000F04104460D46002700BF00BFFFF70EFBDE
:10506000074600BF00BF666A00BF00BF3846FFF7B3
:1050700009FB00BF00BF42F2107028803046BDE837
:10508000F0812DE9F041044688461546002700BF0F
:1050900000BFFFF7F3FA074600BF00BF606A60B9C0
:1050A00000BF00BF3846FFF7EDFA00BF00BF42F275
:1050B000DE7028800020BDE8F081E16A606A8842E5
:1050C0000BD900BF00BF3846FFF7DCFA00BF00BFB6
:1050D00042F2957028800020EDE7606A401E606211
:1050E000D4E9080150F8216000BF00BF3846FFF73F
:1050F000C9FA00BF00BF42F2107028803046DAE7DC
:105100002DE9F04704460F4615464FF0000900BF51
:1051100000BFFFF7B3FA814600BF00BFE06AC01BC3
:10512000461EE06AB04213D800BF00BF4846FFF7F2
:10513000A9FA00BF00BF42F295702880002005E068
:1051400044000020FC140020504F4F4CBDE8F08775
:10515000606AB0420BD900BF00BF4846FFF792FA21
:1051600000BF00BF42F2957028800020E7E7206A68
:1051700050F8268000BF00BF4846FFF783FA00BF03
:1051800000BF42F2107028804046D8E72DE9F04772
:1051900004460E4617464FF0000A00BF00BFFFF757
:1051A0006DFA824600BF00BFE16A606A88420BD395
:1051B00000BF00BF5046FFF765FA00BF00BF42F2D4
:1051C000DD703880BDE8F0874FF00008656A08E0C0
:1051D000206A50F82590B14502D14FF0010803E054
:1051E0006D1CE06AA842F3D800BFB8F1010F06D1E8
:1051F000D4E9080150F82100216A41F82500D4E9DA
:10520000080140F82160606A401C606200BF00BF76
:105210005046FFF737FA00BF00BF42F210703880E7
:1052200000BFCFE72DE9F84F04460F461646002091
:1052300000904FF0FF3B00BF00BFFFF71FFA009048
:1052400000BF00BFE16A606A88420CD300BF00BFA4
:105250000098FFF717FA00BF00BF42F2DD70308000
:105260005846BDE8F88F4FF00009656A08E0206AEB
:1052700050F82580B84502D14FF0010903E06D1CBC
:10528000E06AA842F3D800BFB9F1010F0FD1E06A7C
:10529000401EA0EB050A00BF00BF0098FFF7F2F91F
:1052A00000BF00BF42F2107030805046D9E700BF07
:1052B00000BF0098FFF7E6F900BF00BF42F2887018
:1052C00030805846CDE7000010B502460B46114627
:1052D000002001E0491C401C19B10C780CB1984227
:1052E000F8D310BD30B504464FF0FF312046FFF72C
:1052F000EBFF0546284630BD70B504460D46164600
:105300000CB9002070BD0DB90020FBE721462A46EC
:10531000002304E010780870491C521C5B1C21B16A
:105320001AB1107808B1B342F4D301B10AB9002020
:10533000E8E7B34201D2002008702046E2E770B5EA
:1053400004460D464FF0FF3229462046FFF7D4FFB2
:105350000646304670BD70B503460C4615460BB97F
:10536000002070BD0CB90020FBE70DB91846F8E726
:10537000194600E0491C11B108780028FAD109B992
:105380000020EEE72246002604E010780870491C51
:10539000521C761C21B11AB1107808B1AE42F4D378
:1053A00001B10AB90020DCE7002008701846D8E7F0
:1053B00070B504460D464FF0FF3229462046FFF7F0
:1053C000CAFF0646304670BD2DE9F04305460B4640
:1053D0009446BCF1000F02D10020BDE8F08335B93E
:1053E0000BB90020F9E7187842421046F5E713B9E7
:1053F0002A781046F1E729461C460F4626467F1CB0
:10540000761C4FF0000805E0491C641C7F1C761CCC
:1054100008F10108087894F80090484505D108780B
:1054200018B117B10EB1E045EED3E04501D100202F
:10543000D3E7087894F80090484505D0087894F8A8
:105440000090A0EB09020BE0087808B9002207E001
:105450002FB90EB9002203E03078424200E03A78DA
:105460001046BAE770B504460D464FF0FF322946A4
:105470002046FFF7A9FF0646304670BD2DE9F74FDD
:1054800082B080460E46049818B9002005B0BDE8E9
:10549000F08FB8F1000F09D10EB90020F6E730788F
:1054A000FFF7FAF907467C422046EFE73EB998F845
:1054B0000000FFF7F1F905462C462046E6E7C14615
:1054C000B246C846C3465646CDF804A0D8460BF1AE
:1054D000010B019E701C0190C84699F80000FFF76F
:1054E000DBF9054656469AF80000FFF7D5F907465E
:1054F0000020009015E009F101090AF1010A0BF101
:10550000010B0198401C01900098401C009099F8F4
:105510000000FFF7C1F905469AF80000FFF7BCF953
:105520000746BD420BD199F8000040B1BBF1000F16
:1055300005D0019818B1049900988842DBD30499EA
:105540000098884201D10020A0E7BD4201D0EC1BA9
:1055500016E00DB9002413E0BBF1000F0AD1019849
:1055600008B900240CE001990878FFF795F907467F
:105570007C4205E09BF80000FFF78EF905462C46BB
:10558000204683E770B504460D464FF0FF322946AA
:105590002046FFF773FF0646304670BD30B504461F
:1055A0000B4615460CB9002030BD0BB90020FBE7B7
:1055B0002146002201E0491C521C31B1087820B17B
:1055C0000878A84201D09A42F5D309B90020EBE748
:1055D0009A4201D30020E7E70878A84201D00020D2
:1055E000E2E70846E0E770B505460C4622464FF074
:1055F000FF312846FFF7D2FF0646304670BD2DE941
:10560000F04305460E46174615B90020BDE8F08365
:105610000EB90020FAE72C46A6F1010949462046BA
:10562000FFF752FE804644440CB90020EEE700E04C
:10563000641EAC4202D02078B842F9D12078B8423A
:1056400001D00020E2E72046E0E770B505460C46B1
:1056500022464FF0FF312846FFF7D1FF064630467D
:1056600070BD70B504460D4616460CB9002070BDDD
:105670000BB90020FBE721461A4605E00878A8424E
:1056800000D10E70491C521E19B1087808B1002AC9
:10569000F4D12046EBE7F0B504460D4616464FF030
:1056A000FF33324629462046FFF7DBFF07463846E0
:1056B000F0BD2DE9FF4F06460F4615461EB90020E6
:1056C00004B0BDE8F08F0FB90020F9E70DB9002054
:1056D000F6E7681C00B101E04FF0FF300390294667
:1056E0003046FFF7F1FD804638460399FFF7ECFDA1
:1056F00004460CB93046E3E7444501D90020DFE712
:1057000006EB080BBBF1000F01D10020D8E707EB37
:10571000040BBBF1000F01D10020D1E7A8EB04007E
:1057200002904FF000090020019000BF06EB090035
:105730000090224639460098FFF746FE8246BAF1AD
:10574000000F01D1012000E00020019009F10109C2
:10575000019810B902988145E8D9BAF1000F01D03B
:105760000020ADE70098ABE770B504460D464FF05A
:10577000FF3229462046FFF79CFF0646304670BDA3
:105780002DE9FF4F8DB00F4615461A9E1D9818B98A
:10579000002011B0BDE8F08F002003900490012F8D
:1057A00001DA01200390022D01D3242D01D901201B
:1057B000039096B33046FFF70BF802900298012849
:1057C00002D00120039028E0302E26D0A6F1300030
:1057D000C0B207901B98012804D0A6F14100C0B2C6
:1057E000069003E0A6F16100C0B206900A2D02D82F
:1057F0000798A84209DB0A2D09D907980A2804D37B
:10580000A5F10A000699884201D9012000E0002094
:1058100005900598012800D103901D9C039800284D
:1058200046D1DDF834A0DDF834A0CDF830A0012059
:105830000B9007E00B98401CC0B20B900C98B0FB8B
:10584000F5F00C900C98A842F4D21098012800D1E1
:1058500000E0002009900B9909980844B84225DC23
:10586000002001900B98B84201DA0B9800E038460E
:105870000A903EB1B8460A98391A0998081AC0B277
:10588000089006E0DDE90910084400F0FF08002058
:1058900008900898002806DD302E01D1012000E094
:1058A0000020049004E00020049001E00120039017
:1058B000039800B1B84644441C9808B100202070F9
:1058C000641E4FF0000941E00398A8BBBAF1000F35
:1058D00002D1B9F1000F1CD1BAFBF5F005FB10A005
:1058E00000F0FF0BBBF10A0F04D20BF1300004F8FB
:1058F00001090BE01B98012804D00BF1370004F8D4
:10590000010903E00BF1570004F80109BAFBF5FAAD
:105910001AE01098012810D1049808B9019828B10C
:10592000049850B1A8F10100484506D12D2004F893
:1059300001090120019007E003E02EB104F801699C
:1059400002E03F2004F8010909F10109C145BBD378
:10595000039808B100201CE71D981AE72DE9FF5FA6
:1059600005460E4617461C46DDE90F9ADDF83880DD
:1059700000233A46314628468DE81007FFF700FF1E
:105980008346584604B0BDE8F09F2DE9FF4F85B02F
:10599000044689461F46DDE913AB002C02DA654256
:1059A000012601E02546002612983346CDE902ABD8
:1059B000CDE9007049462846079AFFF7E1FE804688
:1059C000404609B0BDE8F08F2DE9FF4F8BB0064689
:1059D00089461546B9F1000F02D10DF1240900BF27
:1059E000C9F80060189810B907A8189000BF0021E6
:1059F000189801701EB900200FB0BDE8F08F012D7E
:105A000001D0242D01D90020F6E734462078FEF796
:105A1000CDFE039004E0641C2078FEF7C7FE0390DF
:105A200003980128F7D020782B2802D02D280BD1FD
:105A300003E0641C4FF0000B09E00E98012800D130
:105A4000641C4FF0010B02E04FF0000B00BF00BFE1
:105A50000A9425B1082D1CD0102D36D11EE02078D7
:105A6000302814D1641C2078582802D078280BD113
:105A700000BF102567783846FEF77CFE8246BAF1F3
:105A8000010F00D1641C01E0082500BF00E00A25D9
:105A90001CE02078302800D1641C17E020783028E2
:105AA00012D1641C2078582802D078280AD100BF6F
:105AB00067783846FEF75EFE8246BAF1010F00D1E4
:105AC000641C00E000BF00BF00E000BF00BF4FF05B
:105AD000000800200290019040E027783846FEF749
